1TGA     700     1109012031                                                                                             
2TGA     700     1109012030291042031140200000000108000TGA     99K1000124849012B000147                       P           
2TGA     700     1109012030291025005782400000000180000TGA     99K2010888049012B000199                       P           
2TGA     700     1109012030291087006578700000000153000TGA     99K1200832749012B000295                       P           
2TGA     700     1109012030291120003416800000000153000TGA     99K1003977959012B000544                       P           
2TGA     700     1109012030290002081668400000000108000TGA     99K1010164409012B000988                       P           
2TGA     700     1109012030290002056439300000000180000TGA     99K2200802119012B000989                       P           
2TGA     700     1109012030291025011924700000000180000TGA     99K2213585039012B001184                       P           
2TGA     700     1109012030291039036159100000000180000TGA     99K1018782359012B001533                       P           
2TGA     700     1109012030290002053220600000000180000TGA     99K2010714899012B001635                       P           
2TGA     700     1109012030291087008420200000000180000TGA     99K10180    9012B001649                       P           
2TGA     700     1109012030291087004917500000000180000TGA     99R1024127819012B001667                       P           
2TGA     700     1109012030291039024705700000000180000TGA     99K1012643399012B001709                       P           
2TGA     700     1109012030290002045112900000000153000TGA     99K2000100029012B001713                       P           
2TGA     700     110901203G-----2085525900000000180000TGA     99K1011034029012B001728                       P           
2TGA     700     1109012030291025008963900000000180000TGA     99K1004597189012B001878                       P           
2TGA     700     1109012030291025000954700000000180000TGA     99K2013931409012B002096                       P           
2TGA     700     1109012030291025009490100000000108000TGA     99K1213525099012B002105                       P           
2TGA     700     1109012030291025011547500000000108000TGA     99K1014488179012B002342                       P           
2TGA     700     1109012030291025004331000000000180000TGA     99K1014458899012B002422                       P           
2TGA     700     1109012030290002048307200000000108000TGA     99K1004676949012B002428                       P           
2TGA     700     1109012030290002058292700000000180000TGA     99K2201567569012B002513                       P           
2TGA     700     1109012030291039028932600000000180000TGA     99K2004593729012B002521                       P           
2TGA     700     1109012030291039019213100000000180000TGA     99N2024732479012B002526                       P           
2TGA     700     1109012030291039033233700000000180000TGA     99K1214092549012B002592                       P           
2TGA     700     1109012030291025006528400000000180000TGA     99K2206718479012B002602                       P           
2TGA     700     1109012030290002089430100000000108000TGA     99K1008788849012B002616                       P           
2TGA     700     1109012030290002061926100000000180000TGA     99K2201132339012B002700                       P           
2TGA     700     1109012030290002028505100000000180000TGA     99K1010403489012B002742                       P           
2TGA     700     1109012030290002087555100000000180000TGA     9900000000009012B003107                       P           
2TGA     700     1109012030291087001880700000000108000TGA     99K2014012819012B003118                       P           
2TGA     700     1109012030290002066071800000000180000TGA     99K2000109649012B003133                       P           
2TGA     700     1109012030291042020381100000000180000TGA     99K2212838239012B003244                       P           
2TGA     700     1109012030290002071568100000000180000TGA     99K2010155259012B003348                       P           
2TGA     700     1109012030290002069746000000000108000TGA     99K1205397179012B003535                       P           
2TGA     700     1109012030291042001040500000000180000TGA     99K1000632949012B003674                       P           
2TGA     700     1109012030291073002346000000000180000TGA     99B2204944959012B003676                       P           
2TGA     700     1109012030290002068872800000000180000TGA     99K2010177619012B003783                       P           
2TGA     700     1109012030290002077758600000000180000TGA     99K2213435119012B003865                       P           
2TGA     700     1109012030291073008367100000000180000TGA     99K2000058749012B003931                       P           
2TGA     700     1109012030291039015069000000000180000TGA     99K2000452259012B004255                       P           
2TGA     700     1109012030290002038602300000000108000TGA     99K1004101409012B004388                       P           
2TGA     700     1109012030291039027278100000000180000TGA     99K2000940049012B004400                       P           
2TGA     700     1109012030291039005166700000000180000TGA     99K1010142139012B004863                       P           
2TGA     700     1109012030290002008395700000000153000TGA     99K2000947199012B004906                       P           
2TGA     700     1109012030291039025175200000000180000TGA     99K2010732239012B005198                       P           
2TGA     700     1109012030291039010332500000000153000TGA     99K2200602009012B005346                       P           
2TGA     700     1109012030291039032852900000000180000TGA     99K1200778929012B005370                       P           
2TGA     700     1109012030290002062115500000000180000TGA     99K1000422689012B005371                       P           
2TGA     700     1109012030290002071987900000000180000TGA     99K1215726549012B005393                       P           
2TGA     700     1109012030291116011168600000000180000TGA     99K1003641079012B005429                       P           
2TGA     700     1109012030291039034910100000000108000TGA     99K1219462709012B005447                       P           
2TGA     700     1109012030001512045739600000000180000TGA     99K2000269719012B005465                       P           
2TGA     700     1109012030291120003898300000000180000TGA     99B1000440229012B005764                       P           
2TGA     700     1109012030290002050795400000000180000TGA     99K1017811939012B005805                       P           
2TGA     700     1109012030290002003927300000000180000TGA     99K1004547409012B005890                       P           
2TGA     700     1109012030290002083050100000000108000TGA     99K2222461469012B006002                       P           
2TGA     700     1109012030061066021634200000000180000TGA     99V1009878419012B006169                       P           
2TGA     700     1109012030290002123267300000000180000TGA     99K1010541919012B006443                       P           
2TGA     700     1109012030291060003955000000000108000TGA     99K1010428159012B006473                       P           
2TGA     700     1109012030290002083725300000000153000TGA     99K2010553149012B006476                       P           
2TGA     700     1109012030001128900035600000000180000TGA     99K1206325719012B006526                       P           
2TGA     700     1109012030290002087984300000000180000TGA     99K1200144939012B006537                       P           
2TGA     700     1109012030291211012807000000000153000TGA     99K2205728769012B006711                       P           
2TGA     700     1109012030291120001821300000000180000TGA     99K2216270309012B007176                       P           
2TGA     700     1109012030290002072656100000000180000TGA     99U1206837369012B007242                       P           
2TGA     700     1109012030021441019021800000000180000TGA     99E1215836709012B007370                       P           
2TGA     700     1109012030291039028703100000000180000TGA     99K2000317859012B007451                       P           
2TGA     700     1109012030291039032287800000000180000TGA     99K1010054749012B007547                       P           
2TGA     700     1109012030291039031815500000000108000TGA     99K1017698119012B007597                       P           
2TGA     700     1109012030291091027507200000000180000TGA     99K2012985069012B008132                       P           
2TGA     700     1109012030291087004388800000000180000TGA     99K2206776899012B008460                       P           
2TGA     700     1109012030291039030627000000000108000TGA     99K1200577389012B008527                       P           
2TGA     700     1109012030291039016515600000000108000TGA     99K1004658329012B008542                       P           
2TGA     700     1109012030291087007814800000000108000TGA     99K2205476319012B008669                       P           
2TGA     700     1109012030291025008603500000000180000TGA     99K1010695499012B008777                       P           
2TGA     700     1109012030291039027844600000000180000TGA     99K2208835079012B008789                       P           
2TGA     700     1109012030291039020770500000000108000TGA     99K1018800119012B008849                       P           
2TGA     700     1109012030290002071462400000000180000TGA     99K1201055519012B009032                       P           
2TGA     700     1109012030290002016056100000000108000TGA     99L1029187479012B009409                       P           
2TGA     700     1109012030290002062608900000000108000TGA     99K1206683939012B009513                       P           
2TGA     700     1109012030291025003505500000000180000TGA     99K2004649809012B009514                       P           
2TGA     700     1109012030291133011359600000000180000TGA     99K2007893669012B009919                       P           
2TGA     700     1109012030291060005935300000000108000TGA     99K2010678059012B010223                       P           
2TGA     700     1109012030291133037462300000000180000TGA     99K2007926499012B010480                       P           
2TGA     700     1109012030291039022856600000000180000TGA     99K2201057959012B010613                       P           
2TGA     700     1109012030291039029005100000000180000TGA     99K2210159879012B010717                       P           
2TGA     700     1109012030291025012265700000000180000TGA     99K1206778749012B011017                       P           
2TGA     700     1109012030291120003886100000000153000TGA     99T1209450989012B011764                       P           
2TGA     700     1109012030290002057957900000000180000TGA     99L2207555019012B011781                       P           
2TGA     700     1109012030291039031829400000000180000TGA     99K1002590219012B011787                       P           
2TGA     700     1109012030290002063059900000000180000TGA     99K1213045949012B011847                       P           
2TGA     700     1109012030291039036499600000000180000TGA     99K2010448489012B011860                       P           
2TGA     700     1109012030291042028538600000000180000TGA     99K1014143759012B011877                       P           
2TGA     700     1109012030001327041897600000000108000TGA     99L1211388499012B011951                       P           
2TGA     700     1109012030291039036579200000000108000TGA     99K1014356419012B012562                       P           
2TGA     700     1109012030001313048082400000000180000TGA     99A2213916169012B012862                       P           
2TGA     700     1109012030291039021489200000000180000TGA     99K1010827759012B013259                       P           
2TGA     700     1109012030291039006265500000000180000TGA     99K2010122489012B013324                       P           
2TGA     700     1109012030291087005444700000000180000TGA     99K1200821609012B013388                       P           
2TGA     700     1109012030291039009200900000000180000TGA     99K2016724779012B013445                       P           
2TGA     700     1109012030291039036428100000000180000TGA     99K2200514349012B013476                       P           
2TGA     700     1109012030291042012533200000000180000TGA     99K1204832019012B013498                       P           
2TGA     700     1109012030290002039355700000000180000TGA     99K1017379179012B013745                       P           
2TGA     700     1109012030291011009268500000000180000TGA     99A2105976489012B014096                       P           
2TGA     700     1109012030290002060968000000000108000TGA     99C2007915929012B014223                       P           
2TGA     700     1109012030291042018016500000000180000TGA     99T2009617589012B014341                       P           
2TGA     700     1109012030291207026445100000000108000TGA     99K1010920209012B014857                       P           
2TGA     700     1109012030290002027837200000000153000TGA     99K1007205079012B015235                       P           
2TGA     700     1109012030291120003913400000000108000TGA     99L1025175089012B015372                       P           
2TGA     700     1109012030291039026927700000000180000TGA     99K1000910749012B015424                       P           
2TGA     700     1109012030291120003470300000000180000TGA     99K1221335539012B015490                       P           
2TGA     700     1109012030291042000901300000000180000TGA     99K2003315849012B015602                       P           
2TGA     700     1109012030290002048773100000000108000TGA     99K2206728629012B015666                       P           
2TGA     700     1109012030290002088275100000000108000TGA     99K2200805339012B015715                       P           
2TGA     700     1109012030291060003825100000000108000TGA     99K1010429139012B015792                       P           
2TGA     700     1109012030291133032717300000000180000TGA     99K1209855959012B015869                       P           
2TGA     700     1109012030291039011855900000000180000TGA     99K2006776659012B015898                       P           
2TGA     700     1109012030290002049734300000000108000TGA     99K2213539559012B015904                       P           
2TGA     700     1109012030291042030449500000000180000TGA     99K1013857629012B015930                       P           
2TGA     700     1109012030291039028102900000000180000TGA     99K1201522749012B016218                       P           
2TGA     700     1109012030291091011552100000000180000TGA     99K2006850969012B016326                       P           
2TGA     700     1109012030290002006288500000000180000TGA     99K2010198189012B016494                       P           
2TGA     700     1109012030291039003683000000000180000TGA     99D2001347589012B016529                       P           
2TGA     700     1109012030291133047594700000000180000TGA     99K1209851399012B016623                       P           
2TGA     700     1109012030290002040948600000000180000TGA     99K1000147289012B017172                       P           
2TGA     700     1109012030291025004417800000000108000TGA     99K1206758169012B017200                       P           
2TGA     700     1109012030290002054423400000000108000TGA     99K1202013899012B017227                       P           
2TGA     700     1109012030290002061941100000000180000TGA     99K1000207629012B017511                       P           
2TGA     700     1109012030950008036466100000000108000TGA     99K1210295239012B017570                       P           
2TGA     700     1109012030291164018349600000000108000TGA     99K1003955599012B017667                       P           
2TGA     700     1109012030290002048803500000000108000TGA     99K1015874179012B017702                       P           
2TGA     700     1109012030291039035904800000000108000TGA     99K1200351259012B017745                       P           
2TGA     700     1109012030290002044954100000000153000TGA     99K2010523409012B017755                       P           
2TGA     700     1109012030291120001447200000000180000TGA     99K2012846649012B017968                       P           
2TGA     700     1109012030291042028559900000000108000TGA     99K1014126489012B018004                       P           
2TGA     700     1109012030291116016953900000000108000TGA     99J1025035499012B018258                       P           
2TGA     700     1109012030291133037678100000000180000TGA     99K2000789579012B018284                       P           
2TGA     700     1109012030291039026748900000000108000TGA     99H1207602929012B018352                       P           
2TGA     700     1109012032451048021018500000000180000TGA     99K1000625829012B018767                       P           
2TGA     700     1109012030290002075248100000000108000TGA     99H2007995579012B018802                       P           
2TGA     700     1109012030290002069507400000000180000TGA     99L2005392599012B019051                       P           
2TGA     700     1109012030290002052958100000000180000TGA     99K1213901529012B019506                       P           
2TGA     700     1109012030290002064033400000000180000TGA     99K2204854859012B019625                       P           
2TGA     700     1109012030291133800483500000000180000TGA     99H1010271569012B019740                       P           
2TGA     700     1109012030291091016623900000000180000TGA     99K2210622449012B019919                       P           
2TGA     700     1109012030290002048496500000000108000TGA     99M1017622429012B019982                       P           
2TGA     700     1109012030291087002813200000000108000TGA     99J2005525559012B020004                       P           
2TGA     700     1109012030291087007338400000000108000TGA     99J1211865139012B020032                       P           
2TGA     700     1109012030291039030726100000000180000TGA     99K2200258639012B020789                       P           
2TGA     700     1109012030291060006756100000000180000TGA     99K2015033339012B021283                       P           
2TGA     700     1109012030291147014189800000000108000TGA     99K1200021539012B021455                       P           
2TGA     700     1109012030291039021575900000000108000TGA     99K1003248909012B021580                       P           
2TGA     700     1109012030291091024617300000000108000TGA     99K1203410939012B021687                       P           
2TGA     700     1109012030291091014061400000000108000TGA     99K1012756189012B021915                       P           
2TGA     700     1109012030291091003096200000000180000TGA     99K2012392499012B021923                       P           
2TGA     700     1109012030291091036196900000000180000TGA     99K2003030629012B022213                       P           
2TGA     700     1109012030291091036411100000000180000TGA     99K2205380349012B022593                       P           
2TGA     700     1109012030291102002434300000000108000TGA     99K1204346919012B022609                       P           
2TGA     700     1109012030291091018616800000000108000TGA     99K2003183949012B022783                       P           
2TGA     700     1109012030291102002979700000000108000TGA     99K1013671759012B022837                       P           
2TGA     700     1109012030290002051791600000000180000TGA     99K1012941959012B022848                       P           
2TGA     700     1109012030291039023989200000000180000TGA     99K1011149969012B022996                       P           
2TGA     700     1109012030291116026312100000000108000TGA     99K2005701709012B023189                       P           
2TGA     700     1109012030291091032208500000000108000TGA     99K1221862699012B023361                       P           
2TGA     700     1109012030290002025262200000000180000TGA     99K1010562759012B023912                       P           
2TGA     700     1109012030291091035749300000000108000TGA     99K1003170469012B024119                       P           
2TGA     700     1109012030291091001172100000000108000TGA     99K1013136139012B024140                       P           
2TGA     700     1109012030290002055031600000000180000TGA     99K1204358859012B024170                       P           
2TGA     700     1109012030290002042173100000000180000TGA     99K2200743939012B024709                       P           
2TGA     700     1109012030291091025715800000000180000TGA     99K2204930039012B024740                       P           
2TGA     700     1109012030291116014623600000000108000TGA     99K1013684859012B024940                       P           
2TGA     700     1109012030291091003637100000000180000TGA     99K1003202859012B025059                       P           
2TGA     700     1109012030291091012524100000000108000TGA     99K2204302669012B025070                       P           
2TGA     700     1109012030290002031132500000000180000TGA     99K2201496809012B025391                       P           
2TGA     700     1109012030291039020928200000000108000TGA     99K1210039769012B025528                       P           
2TGA     700     1109012030930005053963300000000108000TGA     99K1208449919012B025561                       P           
2TGA     700     1109012030291164021582200000000108000TGA     99K1204825449012B025583                       P           
2TGA     700     1109012030291181001904100000000180000TGA     99K1018432879012B025635                       P           
2TGA     700     1109012030290002065634700000000180000TGA     99K2212103119012B025647                       P           
2TGA     700     1109012030290002056078600000000108000TGA     99K1201027659012B025653                       P           
2TGA     700     1109012030290002059950600000000180000TGA     99N1001584059012B026047                       P           
2TGA     700     1109012030290002067870900000000180000TGA     99K2200919929012B026253                       P           
2TGA     700     1109012030291039036526900000000180000TGA     99K1010063649012B026396                       P           
2TGA     700     1109012030291060001827500000000108000TGA     99K1206543719012B026683                       P           
2TGA     700     1109012030291039004733900000000180000TGA     99V2001887799012B026755                       P           
2TGA     700     1109012030291060004519100000000180000TGA     99K2016284889012B026875                       P           
2TGA     700     1109012030291120003865900000000108000TGA     99K1018354549012B027113                       P           
2TGA     700     1109012030291073005387100000000180000TGA     99J2211055479012B027335                       P           
2TGA     700     1109012030291073009853500000000180000TGA     99K1231133229012B027391                       P           
2TGA     700     1109012030290002036876800000000180000TGA     99K2016258439012B027392                       P           
2TGA     700     1109012030291087007362600000000180000TGA     99K1018803979012B027522                       P           
2TGA     700     1109012030291091024608200000000108000TGA     99K1204335699012B027789                       P           
2TGA     700     1109012030290002061968600000000108000TGA     99K1204202409012B027816                       P           
2TGA     700     1109012030290002043644400000000180000TGA     99K2012558969012B027865                       P           
2TGA     700     1109012030290002087834500000000180000TGA     99K2205377069012B027939                       P           
2TGA     700     1109012030290002061854100000000108000TGA     99K1204148409012B028273                       P           
2TGA     700     1109012030291091035128800000000180000TGA     99K1013436119012B028486                       P           
2TGA     700     1109012030291073006270100000000180000TGA     99K1000512499012B028620                       P           
2TGA     700     1109012030290002050662400000000180000TGA     99K2200402999012B028685                       P           
2TGA     700     1109012030291116800178200000000180000TGA     99A1105894209012B028771                       P           
2TGA     700     1109012030291102000896700000000180000TGA     99K1013108279012B028783                       P           
2TGA     700     1109012030291039031944100000000108000TGA     99K1015864569012B029170                       P           
2TGA     700     1109012030291039029373100000000108000TGA     99L1022004289012B029178                       P           
2TGA     700     1109012030391019004599700000000108000TGA     99K2015002989012B029182                       P           
2TGA     700     1109012030291039036639000000000108000TGA     99R1209228889012B029184                       P           
2TGA     700     1109012030291091036196900000000180000TGA     99K2003030629012B029207                       P           
2TGA     700     1109012030930005046668700000000180000TGA     99K2214925829012B029392                       P           
2TGA     700     1109012030291120001980200000000180000TGA     99K2220964229012B029532                       P           
2TGA     700     1109012030291091024310100000000153000TGA     99K2012848429012B030032                       P           
2TGA     700     1109012030291087003093100000000180000TGA     99K1000992949012B030234                       P           
2TGA     700     1109012030121344000110100000000180000TGA     99K1000484939012B030333                       P           
2TGA     700     1109012030291133036464400000000108000TGA     99K1201508699012B030464                       P           
2TGA     700     1109012030290002046693200000000180000TGA     99K2211205279012B031119                       P           
2TGA     700     1109012030290002800062100000000180000TGA     99A1106821139012B031863                       P           
2TGA     700     1109012030291087005021500000000108000TGA     99J2207830569012B032339                       P           
2TGA     700     1109012030320005088543600000000180000TGA     99G2210701819012B032795                       P           
2TGA     700     1109012030291087008664600000000108000TGA     99K1205376889012B033097                       P           
2TGA     700     1109012030290002048002800000000108000TGA     99K1205377139012B033198                       P           
2TGA     700     1109012030970001026446500000000108000TGA     99K1015697049012B033227                       P           
2TGA     700     1109012030291195025670100000000108000TGA     99G2210501349012B033563                       P           
2TGA     700     1109012030291195017041400000000180000TGA     99K1014154349012B033706                       P           
2TGA     700     1109012030291195021997700000000180000TGA     99K1212662869012B033827                       P           
2TGA     700     1109012030291195008928900000000108000TGA     99K1014069179012B034521                       P           
2TGA     700     1109012030000001312498700000000108000TGA     99K1205530579012B034874                       P           
2TGA     700     1109012030121222014539700000000108000TGA     99W1002664929012B034912                       P           
2TGA     700     1109012030291116016021900000000108000TGA     99K1205111669012B034928                       P           
2TGA     700     1109012030281123022504000000000180000TGA     99K1200779729012B035194                       P           
2TGA     700     1109012030291039030645100000000180000TGA     99V2206638809012B035611                       P           
2TGA     700     1109012030291039029070400000000180000TGA     99K2214019479012B035711                       P           
2TGA     700     1109012030291025005886400000000108000TGA     99K1206684009012B036087                       P           
2TGA     700     1109012030291091013848800000000180000TGA     99K2017137319012B037027                       P           
2TGA     700     1109012030291091016889900000000180000TGA     99K2003301309012B037072                       P           
2TGA     700     1109012030291039034571100000000108000TGA     99K1222524199012B037442                       P           
2TGA     700     1109012030771029021025900000000180000TGA     99Q1013302899012B037952                       P           
2TGA     700     1109012030291039029760800000000180000TGA     99K2010158929012B038070                       P           
2TGA     700     1109012030291116020422300000000108000TGA     99K1205505479012B038132                       P           
2TGA     700     1109012030120001197232100000000108000TGA     99K1206250129012B038287                       P           
2TGA     700     1109012030291091022175300000000180000TGA     99K1013034399012B038304                       P           
2TGA     700     1109012030021088030538200000000108000TGA     99K1205215649012B038981                       P           
2TGA     700     1109012030291011002429700000000180000TGA     99K2010533019012B039008                       P           
2TGA     700     1109012030950008045230600000000180000TGA     99K1203214939012B041493                       P           
2TGA     700     1109012030291133036469200000000108000TGA     99K1210389609012B042250                       P           
2TGA     700     1109012030291039030945800000000108000TGA     99K2010831859012B042422                       P           
2TGA     700     1109012030190005074894600000000180000TGA     99K1018122469012B042501                       P           
2TGA     700     1109012030291039029056700000000180000TGA     99K2015064059012B042607                       P           
2TGA     700     1109012030041077106537300000000108000TGA     99P1218539799012B042692                       P           
2TGA     700     1109012030291039027887500000000108000TGA     99P2219177929012B042727                       P           
2TGA     700     1109012030291025010989600000000108000TGA     99K2206902719012B042801                       P           
2TGA     700     1109012030291116014507600000000180000TGA     99K1013743129012B043380                       P           
2TGA     700     1109012030281046067624500000000108000TGA     99W1002824509012B044098                       P           
2TGA     700     1109012030780002045852500000000108000TGA     99W1003635309012B044137                       P           
2TGA     700     1109012030141165015384700000000180000TGA     99B2207298779012B044654                       P           
2TGA     700     1109012030291133039347000000000180000TGA     99P1215024319012B044659                       P           
2TGA     700     1109012030291039035564300000000180000TGA     99K2011524259012B044668                       P           
2TGA     700     1109012030291073001881100000000180000TGA     99L2011019829012B044811                       P           
2TGA     700     1109012030291087006461100000000108000TGA     99S2220861919012B044859                       P           
2TGA     700     1109012030291073004682200000000108000TGA     99K1000543669012B045195                       P           
2TGA     700     1109012030291060800022200000000180000TGA     99K1010613299012B045826                       P           
2TGA     700     1109012030291087006622800000000180000TGA     99L2205048969012B045909                       P           
2TGA     700     1109012030240001143178300000000180000TGA     99K1212354059012B046566                       P           
2TGA     700     1109012030291091038767400000000180000TGA     99K2205392919012B046935                       P           
2TGA     700     1109012030291039022495900000000180000TGA     99K1200809159012B047006                       P           
2TGA     700     1109012030290002069526000000000108000TGA     99K1201503789012B047262                       P           
2TGA     700     1109012030290002069571400000000153000TGA     99K1010791259012B047331                       P           
2TGA     700     1109012030291195015472100000000180000TGA     99K1206093769012B047562                       P           
2TGA     700     1109012030291039031191900000000108000TGA     99K2010841009012B047961                       P           
2TGA     700     1109012030291039016489700000000180000TGA     99K2200413309012B047972                       P           
2TGA     700     1109012032451017040629400000000180000TGA     99K2211234669012B048103                       P           
2TGA     700     1109012030001938003500700000000153000TGA     99A1213575419012B048219                       P           
2TGA     700     1109012032021040044914300000000180000TGA     99K1206759879012B048288                       P           
2TGA     700     1109012030291039035085900000000180000TGA     99K1003207219012B048420                       P           
2TGA     700     1109012030291039035687900000000180000TGA     99M1004971939012B049253                       P           
2TGA     700     1109012030290002073737800000000180000TGA     99K1000379189012B049810                       P           
2TGA     700     1109012030291039029078300000000180000TGA     99K2000962869012B049830                       P           
2TGA     700     1109012030390000055318900000000108000TGA     99J1212841859012B049891                       P           
2TGA     700     1109012030021179029103900000000180000TGA     99K2013014009012B050189                       P           
2TGA     700     1109012030021260032554000000000180000TGA     99S2218092079012B050435                       P           
2TGA     700     1109012030291116014795100000000180000TGA     99K1205019649012B050495                       P           
2TGA     700     1109012030291207024191100000000108000TGA     99K1001416409012B051293                       P           
2TGA     700     1109012030291207030466300000000180000TGA     99K2202690349012B051348                       P           
2TGA     700     1109012030291207014419200000000180000TGA     99K2202673619012B051404                       P           
2TGA     700     1109012030291207003832400000000180000TGA     99K2001347369012B051607                       P           
2TGA     700     1109012030970001026136400000000108000TGA     99K1202810479012B051946                       P           
2TGA     700     1109012030291147035502900000000108000TGA     99K1219308079012B053076                       P           
2TGA     700     1109012030291207029527400000000180000TGA     99K2011432919012B053931                       P           
2TGA     700     1109012030291207020098500000000108000TGA     99K1001218359012B055157                       P           
2TGA     700     1109012030461048009151000000000180000TGA     99L2214265889012B055548                       P           
2TGA     700     1109012030291207021262700000000108000TGA     99K1011504389012B055763                       P           
2TGA     700     1109012030291147051261500000000180000TGA     99L1204855459012B055766                       P           
2TGA     700     1109012030291224000666200000000180000TGA     99K2001284349012B056194                       P           
2TGA     700     1109012030291211003980500000000180000TGA     99K1001271409012B056195                       P           
2TGA     700     1109012030291147008220100000000180000TGA     99P1027600209012B056915                       P           
2TGA     700     1109012030291147029789000000000153000TGA     99K2201707389012B057628                       P           
2TGA     700     1109012030291147006020800000000108000TGA     99K2012104319012B057777                       P           
2TGA     700     1109012030291147034291300000000108000TGA     99K1203273979012B058064                       P           
2TGA     700     1109012030291147027644500000000180000TGA     99K2002321399012B058069                       P           
2TGA     700     1109012030291147039070100000000108000TGA     99K1203076999012B058652                       P           
2TGA     700     1109012030291147027800300000000180000TGA     99K1203272089012B058767                       P           
2TGA     700     1109012030021302036827900000000108000TGA     99K1203783039012B060031                       P           
2TGA     700     1109012030291207025175200000000153000TGA     99K1201954029012B060768                       P           
2TGA     700     1109012030291207026007900000000108000TGA     99K1202734839012B061808                       P           
2TGA     700     1109012030291147022955800000000108000TGA     99K1203795519012B063378                       P           
2TGA     700     1109012030291147014675600000000108000TGA     99K2011844459012B065490                       P           
2TGA     700     1109012030291207032530600000000108000TGA     99K1201902839012B067526                       P           
2TGA     700     1109012030291087006742200000000180000TGA     99K1206715419012B067699                       P           
2TGA     700     1109012030970001026448200000000180000TGA     99K1202891509012B067903                       P           
2TGA     700     1109012030291091022457800000000108000TGA     99K2205510559012B068264                       P           
2TGA     700     1109012030290002035269500000000180000TGA     99J2019170509012B069355                       P           
2TGA     700     1109012030291133024828200000000108000TGA     99K1210160809012B069609                       P           
2TGA     700     1109012030291087004029800000000108000TGA     99K1206493529012B069902                       P           
2TGA     700     1109012030290002062227200000000108000TGA     99K1204313969012B069931                       P           
2TGA     700     1109012030291120002606800000000180000TGA     99K1003496559012B070189                       P           
2TGA     700     1109012030291164016618200000000108000TGA     99K1009086549012B070222                       P           
2TGA     700     1109012030291195010599900000000180000TGA     99M2002353009012B071162                       P           
2TGA     700     1109012030291039002802400000000180000TGA     99L2031872119012B071253                       P           
2TGA     700     1109012030290002036046100000000108000TGA     99K2201417009012B071262                       P           
2TGA     700     1109012030290002061999300000000108000TGA     99W1001870499012B072015                       P           
2TGA     700     1109012030291207010620000000000180000TGA     99K2001900479012B072202                       P           
2TGA     700     1109012030280006221979100000000108000TGA     99W1000850689012B072601                       P           
2TGA     700     1109012030291042025737400000000180000TGA     99K1219664239012B072818                       P           
2TGA     700     1109012030291164018397100000000108000TGA     99K1213190229012B073191                       P           
2TGA     700     1109012030291195014264600000000108000TGA     99L1023041639012B073267                       P           
2TGA     700     1109012030120001192640800000000108000TGA     99K1200933699012B073274                       P           
2TGA     700     1109012030291133032983100000000180000TGA     99K2204610389012B073467                       P           
2TGA     700     1109012030061070029554700000000180000TGA     99Q1001795779012B073584                       P           
2TGA     700     1109012030390000086797100000000180000TGA     99F2238812899012B073865                       P           
2TGA     700     1109012030201136023012600000000108000TGA     99S1215780729012B073944                       P           
2TGA     700     1109012030291133043438300000000180000TGA     99Q2207826169012B074787                       P           
2TGA     700     1109012030451069005941300000000180000TGA     99K1204566979012B074892                       P           
2TGA     700     1109012030970001038239100000000180000TGA     99K2218206399012B074930                       P           
2TGA     700     1109012030291087000974600000000180000TGA     99K2004463029012B075259                       P           
2TGA     700     1109012030291091026599400000000180000TGA     99K2215829569012B075556                       P           
2TGA     700     1109012030291133047883500000000180000TGA     99Q1023035179012B075611                       P           
2TGA     700     1109012030291133048833900000000180000TGA     99D2003416829012B075631                       P           
2TGA     700     1109012030291207010620000000000180000TGA     99K2001900479012B075762                       P           
2TGA     700     1109012030290002058984100000000180000TGA     99K2212761599012B075937                       P           
2TGA     700     1109012030291039030929300000000180000TGA     99K2010805319012B075956                       P           
2TGA     700     1109012030291073008695300000000180000TGA     99F1282019039012B076333                       P           
2TGA     700     1109012030291147015753100000000180000TGA     99K2203624509012B076727                       P           
2TGA     700     1109012030291011001926700000000180000TGA     99K1011143349012B076731                       P           
2TGA     700     1109012030291039036641500000000108000TGA     99N1034856509012B076933                       P           
2TGA     700     1109012030291025004530700000000108000TGA     99K2206713929012B077193                       P           
2TGA     700     1109012030390000055312700000000108000TGA     99K1013282679012B077464                       P           
2TGA     700     1109012030060009149798300000000108000TGA     99K2201225639012B078280                       P           
2TGA     700     1109012030291091020848600000000180000TGA     99K1013337689012B078453                       P           
2TGA     700     1109012030291039031815500000000108000TGA     99K1017698119012B078587                       P           
2TGA     700     1109012030291195014979700000000108000TGA     99K1205546709012B078605                       P           
2TGA     700     1109012030291120003914800000000108000TGA     99L1006061379012B079383                       P           
2TGA     700     1109012030001756032947800000000108000TGA     99K1004329959012B079488                       P           
2TGA     700     1109012030291116005242900000000108000TGA     99K1003715139012B079526                       P           
2TGA     700     1109012030290002065837900000000108000TGA     99K1004312109012B079857                       P           
2TGA     700     1109012030291116023937200000000108000TGA     99K1206281939012B079898                       P           
2TGA     700     1109012030291116018093100000000108000TGA     99K1205348109012B079967                       P           
2TGA     700     1109012030291011010916300000000180000TGA     99H2214243959012B080543                       P           
2TGA     700     1109012030291195015196800000000180000TGA     99J2005486229012B080612                       P           
2TGA     700     1109012030291207012839100000000108000TGA     99K1013814339012B080662                       P           
2TGA     700     1109012030291039023330400000000153000TGA     99N2207330869012B081264                       P           
2TGA     700     1109012030291116021367100000000180000TGA     99V2201351679012B081274                       P           
2TGA     700     1109012030290002067323500000000180000TGA     99K2213897139012B081800                       P           
2TGA     700     1109012030290002086833500000000153000TGA     99K2201335759012B081818                       P           
2TGA     700     1109012030291037029758200000000180000TGA     99K1201053739012B081965                       P           
2TGA     700     1109012030291116015932000000000108000TGA     99U2205214849012B081978                       P           
2TGA     700     1109012030021320030404900000000108000TGA     99C2207687959012B082193                       P           
2TGA     700     1109012030291207020567500000000108000TGA     99K1011906299012B082232                       P           
2TGA     700     1109012030291133029994700000000180000TGA     99K2210214039012B082427                       P           
2TGA     700     1109012030300002095136900000000180000TGA     99N2225626749012B082575                       P           
2TGA     700     1109012030291039034808100000000180000TGA     99A1015640599012B082596                       P           
2TGA     700     1109012030291207010457800000000153000TGA     99K1011635979012B083086                       P           
2TGA     700     1109012030291091038767400000000180000TGA     99K2205392919012B083177                       P           
2TGA     700     1109012030021273071533000000000108000TGA     99W1000806709012B083434                       P           
2TGA     700     1109012030001145046205700000000180000TGA     99K1206377729012B083724                       P           
2TGA     700     1109012030290002057354500000000180000TGA     99K2210027029012B084570                       P           
3TGA     700     11090120300000000566100000000000372                                                                    
